:060000000A128A11E22F32
:100B700001348316031306083F38860008000A1262
:100B80008A11B9250A128A110A128A11CA250A1273
:100B90008A110800831603138801050803398500AC
:100BA0008312031305080339850008003F34063417
:100BB0005B344F3466346D347D3407347F346F34A6
:100BC0003F343F343F343F34013400347E088A00E0
:100BD0007F0882000A128A11E6250A128A11800013
:100BE000840A04087D0603190034FF0A0319FE0A6B
:100BF000EA2DF1007108031DFE2DFF2D042E831236
:100C0000031306083F39222E3F30831203130605D3
:100C1000F0003F30700603190E2E0F2E162E7C08A2
:100C20000319132E142E162EFC01FF2D3F3006053E
:100C3000F0003F307006031D1E2E1F2E212EFC01DA
:100C4000FC0A3F300800700871040319282E292E71
:100C5000582EF401F40A372E01300310F00DF10D77
:100C6000FF3E031D2D2E0130FF007F08F407F11F0A
:100C70003A2E3B2E2C2E71087302031D412E700854
:100C80007202031C442E452E4B2E7008F20271088E
:100C9000031CF303F30201300310F10CF00CFF3ED0
:100CA000031D4C2E0130F402031D572E582E3B2EEF
:100CB0007308F1007208F0000800F901FA017508E4
:100CC00076040319642E652E9C2EFB01FB0A732EFD
:100CD00001300310F50DF60DFF3E031D692E0130A6
:100CE000FF007F08FB07F61F762E772E682E013057
:100CF0000310F90DFA0DFF3E031D782E76087802D9
:100D0000031D842E75087702031C872E882E8F2ED4
:100D10007508F7027608031CF803F802791401300D
:100D20000310F60CF50CFF3E031D902E0130FB0264
:100D3000031D9B2E9C2E772E7A08F6007908F5006D
:100D40000800F800F90179087807F00070088400BD
:100D5000831300088312031388000430F000790A1B
:100D6000B32E0310F00DFF3E031DB12E050803390D
:100D7000700485000030F7000030F6000130F50007
:100D8000F430F4000130F0000030F1000030F200E7
:100D90000030F3007008F4027108031C710FD12EAB
:100DA000D22EF5027208031C720FD72ED82EF6022F
:100DB0007308031C730FDD2EDE2EF702740A031D69
:100DC000EB2E750A031DEB2E760A031DEB2E770A18
:100DD000031DEB2EEC2EC22E0130FF007F08F90719
:100DE00004307902031CF52EF62EA32E0800831280
:100DF00003134008B1003F08B0003E08AF003D08B3
:100E0000AE00243084003330A0000408A1000A3072
:100E1000A2002008840083130008A300A00A210870
:100E2000840023088000A10AA20B092F0A128A114C
:100E3000BF250A128A1100300A128A11F9250A12F6
:100E40008A1183120313B2003E303206031D292F8C
:100E50002A2F402F4108420403192F2F302F392FFA
:100E60000130C7070318C80A0030C807C101C20112
:100E7000442F0130C3020030031CC403C402442FBA
:100E80000130C1000030C200430844040319492F57
:100E90004A2FC82F0130C5070318C60A0030C607FD
:100EA0001A3045064604031D562F572FCE2F0A3001
:100EB000F0000030F1004808F3004708F2000A1281
:100EC0008A1123260A128A117008243E8400831393
:100ED000000883120313B1000A30F5000030F60059
:100EE0004808F3004708F2006430F0000030F100D9
:100EF0000A128A1123260A128A117108F800700852
:100F0000F7000A128A115D260A128A117508243E1A
:100F100084008313000883120313B0006430F500CB
:100F20000030F6004808F3004708F200E830F0000F
:100F30000330F1000A128A1123260A128A1171085D
:100F4000F8007008F7000A128A115D260A128A1149
:100F50007508243E84008313000883120313AF0036
:100F6000E830F5000330F6004808F8004708F700BD
:100F70000A128A115D260A128A117508243E84001D
:100F80008313000883120313AE00C501C601CE2FE0
:100F9000C830C3000030C400C701C8012730480270
:100FA0000F3003194702031CD62FD72FD82FD72F66
:100FB0002E300A128A11A1260A128A111B2F0A1238
:100FC0008A11002883134330FD000530FE00D6301F
:100FD000FF00333084000A128A11EA250A128A11AE
:100FE0000A128A11B8250A128A11FC00C301C40131
:100FF000C501C601C701C80183010A128A11F72E73
:08400000FF3FFF3FFF3FFF3FC0
:02400E00FB3F76
:00000001FF
