:060000000A128A11FC2F18
:100F900083120313860183160313860108000A12C5
:100FA0008A11C8270A128A110030F3000030F200BB
:100FB0000030F1000030F0000130F007003003187D
:100FC0000130F107003003180130F2070030031838
:100FD0000130F30751307006C330031971067204F3
:100FE0007304031DF42FF52FDC2F831203138609DE
:100FF000D42F0A128A11002883010A128A11CF2FD6
:08400000FF3FFF3FFF3FFF3FC0
:02400E00FB3F76
:00000001FF
