:060000000A128A11FC2F18
:100F020083120313860183160313860108000A1253
:100F12008A1181270A128A11FF3083120313860075
:100F22000030F7000130F6008630F500A030F40002
:100F32000130F0000030F1000030F2000030F30028
:100F42007008F4027108031C710FA82FA92FF50273
:100F52007208031C720FAE2FAF2FF6027308031C28
:100F6200730FB42FB52FF702740A031DC22F750A2F
:100F7200031DC22F760A031DC22F770A031DC22F3B
:100F8200C32F992F8312031386010030FB00013017
:100F9200FA008630F900A030F8000130F00000308D
:100FA200F1000030F2000030F3007008F80271081E
:100FB200031C710FDD2FDE2FF9027208031C720F62
:100FC200E32FE42FFA027308031C730FE92FEA2FB1
:100FD200FB02780A031DF72F790A031DF72F7A0AFD
:100FE200031DF72F7B0A031DF72FF82FCE2F8D2F0E
:0E0FF2000A128A11002883010A128A11882F20
:08400000FF3FFF3FFF3FFF3FC0
:02400E00FB3F76
:00000001FF
