:060000000A128A11E42F30
:100B800001348316031306083F38860008008312D9
:100B9000031388018316031388010A128A11C125E1
:100BA0000A128A1108000A128A11C7250A128A112C
:100BB00000300A128A11F1250A128A11FC003F3016
:100BC0007C060319E42DE52DE72D7C08FB007B084E
:100BD0000A128A111B260A128A11D82D0A128A11AA
:100BE0000028F9007908031DF62DF72DFC2D83123E
:100BF000031306083F391A2E3F30831203130605EC
:100C0000F8003F3078060319062E072E0E2E7D08B9
:100C100003190B2E0C2E0E2EFD01F72D3F3006056D
:100C2000F8003F307806031D162E172E192EFD01F1
:100C3000FD0A3F300800FA00013083120313A407B5
:100C4000003003180130A507003003180130A60753
:100C5000003003180130A707213024064E30031955
:100C6000250626042704031D362E372EE32F0030D9
:100C700083120313A7000030A6000030A500003047
:100C8000A400280829040319462E482E0130492EB5
:100C90000030F800F9017808A8007908A9003E3072
:100CA0007A06031D542E552E3E2F7708031D652E00
:100CB0007608031D652E7508031D652E0830740225
:100CC000031D622E0318652E662E832E0130F80058
:100CD000740A6C2E0310F80DFF3E031D6A2E78086F
:100CE00083120313080488000130F407003003184E
:100CF0000130F507003003180130F6070030031803
:100D00000130F7071B2F7708031D942E7608031D6B
:100D1000942E7508031D942E08307402031D902E26
:100D2000031C932E942EB72E7708031DA42E76084D
:100D3000031DA42E7508031DA42E10307402031D7C
:100D4000A12E0318A42EA52EB72E0130F80074088A
:100D5000F83E013EAD2E0310F80DFF3E031DAB2EF5
:100D60007808FF3A8312031308058800742E73086D
:100D7000031DC72E7208031DC72E7108031DC72E41
:100D800009307002031DC42E0318C72EC82EE72E8B
:100D90000130F8007008083C013ED02E0310F80D19
:100DA000FF3E031DCE2E780883120313080488002B
:100DB0000130F007003003180130F107003003184C
:100DC0000130F207003003180130F3071B2F7308BE
:100DD000031DF82E7208031DF82E7108031DF82E4E
:100DE00009307002031DF42E031CF72EF82E1B2F62
:100DF0007308031D082F7208031D082F7108031DB7
:100E0000082F11307002031D052F0318082F092F1A
:100E10001B2F0130F8007008103C013E112F031009
:100E2000F80DFF3E031D0F2F7808FF3A83120313BE
:100E300008058800D82E10307406750476047704EF
:100E4000031D232F242FE32F113070067104720429
:100E50007304031D2C2F2D2FE32F0030F7000030DB
:100E6000F6000030F5000030F4000030F3000030F0
:100E7000F2000030F1000030F000E32F3D307A0640
:100E8000031D432F442FC02F2308031D542F220876
:100E9000031D542F2108031D542F08302002031D69
:100EA000512F0318542F552F722F0130F800831241
:100EB0000313200A5D2F0310F80DFF3E031D5B2F67
:100EC0007808080488000130A007003003180130BA
:100ED000A107003003180130A207003003180130C9
:100EE000A307AA2F831203132308031D852F2208AB
:100EF000031D852F2108031D852F08302002031DA7
:100F0000812F031C842F852FAA2F831203132308FC
:100F1000031D972F2208031D972F2108031D972FCC
:100F200010302002031D942F0318972F982FAA2FFB
:100F30000130F800831203132008F83E013EA22F6F
:100F40000310F80DFF3E031DA02F7808FF3A080597
:100F50008800632F1030831203132006210422041B
:100F60002304031DB42FB52FE32F00308312031386
:100F7000A3000030A2000030A1000030A000E32F49
:100F80003B307A06031DC52FC62FD12F2808290410
:100F90000319CB2FCC2FCF2FAA308800E32F88093D
:100FA000E32F37307A06031DD62FD72FE22F2808DC
:100FB00029040319DC2FDD2FE02FF0308800E32F08
:100FC0008809E32F880108000A128A11C0250A1235
:100FD0008A11FD00A001A101A201A301A401A501A4
:100FE000A601A701A801A901F001F101F201F30195
:100FF000F401F501F601F70183010A128A11D32DDC
:08400000FF3FFF3FFF3FFF3FC0
:02400E00FB3F76
:00000001FF
