:060000000A128A110C280F
:10000800FE00030EF6000A08F7000A128A111928E2
:100018000A128A110F28F001F101F201F301F4012B
:10002800F50183010A128A11B4280B1D1C281D280A
:100038003728831203130108083E81000130F407B2
:100048000318F50A0030F507203074064E300319FE
:100058007506031D302831283528F401F5010130D3
:1000680088060B116E28831203130C1C3C283D28AC
:100078005628FE308F000C308E000130F20703182E
:10008800F30A0030F307D9307206043003197306F7
:10009800031D4F2850285428F201F3010230880626
:1000A8000C106E288C1C59285A286E280130F0072D
:1000B8000318F10A0030F107E23070060430031922
:1000C8007106031D682869286D28F001F1010430C4
:1000D80088068C1077088A00760E8300FE0E7E0E46
:1000E80009008312031388018316031388010A1277
:1000F8008A11AA200A128A110A128A118D200A125C
:100108008A110A128A119D200A128A110B178B175D
:1001180008008312031390161016FE308F000C305F
:100128008E009010831603130C14831203131014FB
:1001380008008312031312149214831603138C14E9
:10014800FA30920083120313121508008316031362
:100158008112811506308312031381008B16080063
:100168000A128A1175200A128A11B9280A128A11EC
:020178000C2851
:08400000FF3FFF3FFF3FFF3FC0
:02400E00FB3F76
:00000001FF
