:060000000A128A11FC2F18
:100E260083160313880183120313880108000A122C
:100E36008A1113270A128A110030F4000030F300D9
:100E46000030F2000030F1000130F10700300318E5
:100E56000130F207003003180130F30700300318A1
:100E66000130F407213071064E30031972067304FF
:100E76007404031D3F2F402F272F0030F40000304D
:100E8600F3000030F2000030F1007608803AFF00EF
:100E960080307F02031D512F083075020318542F2E
:100EA600552F6A2F0130F000750A5B2F0310F00DE5
:100EB600FF3E031D592F7008831203130804880090
:100EC6000130F5070318F60A0030F607E62F760814
:100ED600803AFF0080307F02031D732F08307502B1
:100EE600031C762F772F962F7608803AFF008030E6
:100EF6007F02031D802F103075020318832F842F65
:100F0600962F0130F0007508F83E013E8C2F031035
:100F1600F00DFF3E031D8A2F7008FF3A831203135C
:100F260008058800632F7808803AFF0080307F022A
:100F3600031D9F2F093077020318A22FA32FBA2F64
:100F46000130F0007708083C013EAB2F0310F00D8E
:100F5600FF3E031DA92F700883120313080488009F
:100F66000130F7070318F80A0030F807E62F78086B
:100F7600803AFF0080307F02031DC32F09307702BD
:100F8600031CC62FC72FE62F7808803AFF00803053
:100F96007F02031DD02F123077020318D32FD42FD0
:100FA600E62F0130F0007708103C013EDC2F0310DD
:100FB600F00DFF3E031DDA2F7008FF3A831203136C
:100FC60008058800B32F103075067604031DEC2F34
:100FD600ED2F272F113077067804031DF32FF42FFA
:100FE600272FF501F601F701F801272F0A128A11BA
:0A0FF600002883010A128A111A2F45
:08400000FF3FFF3FFF3FFF3FC0
:02400E00FB3F76
:00000001FF
