:060000000A128A110C280F
:10000800FE00030EF0000A08F1000A128A11362BCE
:100018000A128A110F2883134030FD000430FE00B5
:100028005430FF00323084000A128A1145240A1223
:100038008A110A128A1192240A128A11F9002030B0
:10004800840032300A128A1184240A128A11830128
:100058000A128A112F280A128A112A240A128A11CE
:100068003B3083120313CD00FF30CA00FF30CB00B2
:100078000130C6000030C700C801C90101300A12AA
:100088008A11FA230A128A1183120313CC003F3013
:100098004C0603195028512853284C08CD0001302C
:1000A800C6070318C70A0030C7070B3046064704BF
:1000B800031D5F28602865283D088038BD00C601FB
:1000C800C7013E304C06031D6A286B2874288B1A1A
:1000D8006E286F287428C801C80AC901C90AD4281B
:1000E8003D304C06031D79287A28A2288B1A7D28D2
:1000F8007E28A228C801C80AC9012C082D04031D9E
:100108008628872891283D30AC000030AD000130AA
:10011800AC020030031CAD03AD0228082904031DFE
:1001280096289728D4281930A8000030A900013053
:10013800A8020030031CA903A902D4283B304C06AE
:10014800031DA728A828C6288B1AAB28AC28C628C0
:100158004A08013ECA004B080318013E003ECB0086
:100168004B08803AFF0080307F02031DBD28023013
:100178004A02031CC028C128D42883120313CA01C9
:10018800CB01D42837304C06031DCB28CC28D428E3
:100198008B16831603138C10831203131211D428A1
:1001A8008312031348080319DA28DB283A290A2995
:1001B8004908031DE028E128EA282C08FF3EAC0086
:1001C8002D080318013EFF3EAD0017292C08013EFB
:1001D800AC002D080318013E003EAD001729490860
:1001E800031DF728F82801292808FF3EA800290838
:1001F8000318013EFF3EA90017292808013EA80060
:1002080029080318013E003EA90017294B08003AA7
:1002180003190F2917294A08003A0319DC28013A5B
:100228000319F328172900302D023C3003192C023A
:1002380003181F29202926292C082D04031D2529E8
:1002480026292829AC01AD010030290218300319EC
:100258002802031830293129372928082904031DC1
:10026800362937293929A801A901C8012E032F04E5
:10027800031D3F294029AA293E304D060319452967
:10028800462952293D304D0603194B294C2952293C
:100298003B304D06031D51295229AA298B1A55298D
:1002A8005629AA290A30F2000030F3002D08F5007B
:1002B8002C08F4000A128A11C0230A128A11720843
:1002C800323E84008313000883120313BF000A30F0
:1002D800F2000030F3002D08F5002C08F4000A1293
:1002E8008A117C230A128A117208323E8400831311
:1002F800000883120313BE000A30F2000030F30036
:100308002908F5002808F4000A128A11C0230A12E5
:100318008A117208323E8400831300088312031383
:10032800BD000A30F2000030F3002908F500280863
:10033800F4000A128A117C230A128A117208323ECA
:1003480084008313000883120313BC0002302E06B6
:100358002F04031DB029B1292F2AAE01AF013E3069
:100368004D060319B829B929C5293D304D06031989
:10037800BE29BF29C5293B304D06031DC429C529FF
:100388002F2A8B1AC829C9292F2A4A084B04031D6A
:10039800CE29CF29FC29BF01BE010A30F200003066
:1003A800F3002908F5002808F4000A128A11C0236E
:1003B8000A128A117208323E8400831300088312DD
:1003C8000313BD000A30F2000030F3002908F500DD
:1003D8002808F4000A128A117C230A128A1172086A
:1003E800323E84008313000883120313BC002F2AB3
:1003F8004A034B04031D012A022A2F2ABD01BC010E
:100408000A30F2000030F3002D08F5002C08F40043
:100418000A128A11C0230A128A117208323E840015
:100428008313000883120313BF000A30F200003060
:10043800F3002D08F5002C08F4000A128A117C2319
:100448000A128A117208323E84008313000883124C
:100458000313BE002F2A8B1E322A332AD22A3003D6
:100468003104031D382A392A3C2A3D088038BD004A
:10047800073030063104031D422A432AD22AB0012C
:10048800B1010130AC070318AD0A0030AD073C30AC
:100498002C062D04031D512A522A5A2AAC01AD01FB
:1004A8000130A8070318A90A0030A907003029025B
:1004B800173003192802031C622A632A672AA80135
:1004C800A901AC01AD0128082904031D6C2A6D2A75
:1004D8007E2A2C082D04031D722A732A7E2A8B1269
:1004E800831603138C148312031312150130C600EC
:1004F8000030C7000A30F2000030F3002D08F50084
:100508002C08F4000A128A11C0230A128A117208F0
:10051800323E84008313000883120313BF000A309D
:10052800F2000030F3002D08F5002C08F4000A1240
:100538008A117C230A128A117208323E84008313BE
:10054800000883120313BE000A30F2000030F300E3
:100558002908F5002808F4000A128A11C0230A1293
:100568008A117208323E8400831300088312031331
:10057800BD000A30F2000030F3002908F500280811
:10058800F4000A128A117C230A128A117208323E78
:1005980084008313000883120313BC003C300A1242
:1005A8008A11DC220A128A1142280A128A110C289E
:1005B80083120313C400C50145084407F2007208FA
:1005C80084008313000888000430F200450AEE2AEC
:1005D8000310F20DFF3E031DEC2A050803397204CF
:1005E80085000030C3000030C2000030C100643014
:1005F800C0000130F2000030F3000030F400003099
:10060800F500720883120313C0027308031C730FEA
:100618000E2B0F2BC1027408031C740F142B152BFF
:10062800C2027508031C750F1A2B1B2BC302400A44
:10063800031D282B410A031D282B420A031D282BC2
:10064800430A031D282B292BFD2A0130FF007F08B0
:1006580083120313C50704304502031C342B352BC2
:10066800E02A08000B1D392B3A2B572B8312031352
:100678000108083E81000130A4070318A50A0030CC
:10068800A507E9302406FD3003192506031D4D2B67
:100698004E2B562BA401A5010130B0070318B10A4F
:1006A8000030B1070B11831203138C1C5C2B5D2BDC
:1006B800752B0130A2070318A30A0030A307713075
:1006C8002206023003192306031D6B2B6C2B742B97
:1006D800A201A3010130AE070318AF0A0030AF072B
:1006E8008C1071088A00700E8300FE0E7E0E0900C1
:1006F800F601F701720873040319832B842BBB2BB3
:10070800F801F80A922B01300310F20DF30DFF3EA9
:10071800031D882B0130FF007F08F807F31F952B76
:10072800962B872B01300310F60DF70DFF3E031DA6
:10073800972B73087502031DA32B72087402031C00
:10074800A62BA72BAE2B7208F4027308031CF50323
:10075800F502761401300310F30CF20CFF3E031D72
:10076800AF2B0130F802031DBA2BBB2B962B770851
:10077800F3007608F2000800720873040319C52B09
:10078800C62BF52BF601F60AD42B01300310F20D17
:10079800F30DFF3E031DCA2B0130FF007F08F6074B
:1007A800F31FD72BD82BC92B73087502031DDE2B1B
:1007B80072087402031CE12BE22BE82B7208F40286
:1007C8007308031CF503F50201300310F30CF20C57
:1007D800FF3E031DE92B0130F602031DF42BF52B18
:1007E800D82B7508F3007408F2000800F3007308AA
:1007F800031DFF2B002C052C8312031306083F3919
:10080800292C013083120313A0070318A10A003012
:10081800A1073F300605F2003F3072060319152C78
:10082800162C1D2C790803191A2C1B2C1D2CF901C8
:10083800002C3F300605F2003F307206031D252CC0
:10084800262C282CF901F90A3F3008000A128A11CF
:100858006F240A128A110A128A118C240A128A1128
:100868000A128A117B240A128A110A128A11622436
:100878000A128A110B178B1708007E088A007F0856
:1008880082000A128A1141240A128A118000840AFD
:1008980004087D0603190034FF0A0319FE0A452CD3
:1008A8003F3406345B344F3466346D347D3407345A
:1008B8007F346F343F343F343F343F348312031363
:1008C80012149214FA308316031392008C148312B4
:1008D800031312150800831603138801050803394A
:1008E8008500831203130508033985000800831661
:1008F8000313811281150630831203138100080047
:1009080064008001840A0406031900340406852C57
:0E0918008316031306083F38860008000134DA
:08400000FF3FFF3FFF3FFF3FC0
:02400E00FB3F76
:00000001FF
