:060000000A128A110C280F
:10000800FE00030EF0000A08F1000A128A11342BD0
:100018000A128A110F2883134030FD000430FE00B5
:100028005230FF00323084000A128A1143240A1227
:100038008A110A128A1190240A128A11F9002030B2
:10004800840032300A128A1182240A128A1183012A
:100058000A128A112F280A128A1128240A128A11D0
:100068003B3083120313CD00FF30CA00FF30CB00B2
:100078000130C6000030C700C801C90101300A12AA
:100088008A11F8230A128A1183120313CC003F3015
:100098004C0603195028512853284C08CD00460314
:1000A8004704031D5828592863283B30CC003B30AF
:1000B800CD00C601C701FF30CA00FF30CB003E307B
:1000C8004C06031D6828692872288B1A6C286D282D
:1000D8007228C801C80AC901C90AD2283D304C068D
:1000E800031D77287828A0288B1A7B287C28A0282D
:1000F800C801C80AC9012C082D04031D84288528B5
:100108008F283D30AC000030AD000130AC0200302B
:10011800031CAD03AD0228082904031D9428952863
:10012800D2281930A8000030A9000130A8020030F8
:10013800031CA903A902D2283B304C06031DA5289D
:10014800A628C4288B1AA928AA28C4284A08013E28
:10015800CA004B080318013E003ECB004B08803A0A
:10016800FF0080307F02031DBB2802304A02031CB7
:10017800BE28BF28D22883120313CA01CB01D22874
:1001880037304C06031DC928CA28D2288B16831677
:1001980003138C10831203131211D2288312031332
:1001A80048080319D828D928382908294908031DD7
:1001B800DE28DF28E8282C08FF3EAC002D080318AD
:1001C800013EFF3EAD0015292C08013EAC002D086C
:1001D8000318013E003EAD0015294908031DF52806
:1001E800F628FF282808FF3EA80029080318013E22
:1001F800FF3EA90015292808013EA8002908031870
:10020800013E003EA90015294B08003A03190D29A3
:1002180015294A08003A0319DA28013A0319F1287E
:10022800152900302D023C3003192C0203181D2912
:100238001E2924292C082D04031D232924292629B5
:10024800AC01AD0100302902183003192802031847
:100258002E292F29352928082904031D3429352951
:100268003729A801A901C8012E032F04031D3D2920
:100278003E29A8293E304D0603194329442950290F
:100288003D304D06031949294A2950293B304D066E
:10029800031D4F295029A8298B1A53295429A82905
:1002A8000A30F2000030F3002D08F5002C08F400A5
:1002B8000A128A11BE230A128A117208323E840079
:1002C8008313000883120313BF000A30F2000030C2
:1002D800F3002D08F5002C08F4000A128A117A237D
:1002E8000A128A117208323E8400831300088312AE
:1002F8000313BE000A30F2000030F3002908F500AD
:100308002808F4000A128A11BE230A128A117208F8
:10031800323E84008313000883120313BD000A30A1
:10032800F2000030F3002908F5002808F4000A124A
:100338008A117A230A128A117208323E84008313C2
:10034800000883120313BC0002302E062F04031D7D
:10035800AE29AF292D2AAE01AF013E304D06031953
:10036800B629B729C3293D304D060319BC29BD2933
:10037800C3293B304D06031DC229C3292D2A8B1AD8
:10038800C629C7292D2A4A084B04031DCC29CD2983
:10039800FA29BF01BE010A30F2000030F300290833
:1003A800F5002808F4000A128A11BE230A128A11DD
:1003B8007208323E84008313000883120313BD00C1
:1003C8000A30F2000030F3002908F5002808F4008C
:1003D8000A128A117A230A128A117208323E84009C
:1003E8008313000883120313BC002D2A4A034B040D
:1003F800031DFF29002A2D2ABD01BC010A30F20085
:100408000030F3002D08F5002C08F4000A128A11B8
:10041800BE230A128A117208323E84008313000830
:1004280083120313BF000A30F2000030F3002D08D6
:10043800F5002C08F4000A128A117A230A128A118C
:100448007208323E84008313000883120313BE002F
:100458002D2A8B1E302A312AD02A30033104031D5D
:10046800362A372A3A2A3D088038BD000730300638
:100478003104031D402A412AD02AB001B1010130BC
:10048800AC070318AD0A0030AD073C302C062D042C
:10049800031D4F2A502A582AAC01AD010130A80784
:1004A8000318A90A0030A9070030290217300319D8
:1004B8002802031C602A612A652AA801A901AC0147
:1004C800AD0128082904031D6A2A6B2A7C2A2C08F6
:1004D8002D04031D702A712A7C2A8B12831603139C
:1004E8008C148312031312150130C6000030C700A4
:1004F8000A30F2000030F3002D08F5002C08F40053
:100508000A128A11BE230A128A117208323E840026
:100518008313000883120313BF000A30F20000306F
:10052800F3002D08F5002C08F4000A128A117A232A
:100538000A128A117208323E84008313000883125B
:100548000313BE000A30F2000030F3002908F5005A
:100558002808F4000A128A11BE230A128A117208A6
:10056800323E84008313000883120313BD000A304F
:10057800F2000030F3002908F5002808F4000A12F8
:100588008A117A230A128A117208323E8400831370
:10059800000883120313BC003C300A128A11DA22C5
:1005A8000A128A1142280A128A110C28831203138C
:1005B800C400C50145084407F2007208840083138B
:1005C800000888000430F200450AEC2A0310F20DF6
:1005D800FF3E031DEA2A050803397204850000302E
:1005E800C3000030C2000030C1006430C0000130D8
:1005F800F2000030F3000030F4000030F50072081B
:1006080083120313C0027308031C730F0C2B0D2BEA
:10061800C1027408031C740F122B132BC202750835
:10062800031C750F182B192BC302400A031D262B18
:10063800410A031D262B420A031D262B430A031DCC
:10064800262B272BFB2A0130FF007F088312031378
:10065800C50704304502031C322B332BDE2A080061
:100668000B1D372B382B552B831203130108083E1B
:1006780081000130A4070318A50A0030A507E93056
:100688002406FD3003192506031D4B2B4C2B542B38
:10069800A401A5010130B0070318B10A0030B10761
:1006A8000B11831203138C1C5A2B5B2B732B0130F9
:1006B800A2070318A30A0030A307713022060230EC
:1006C80003192306031D692B6A2B722BA201A301B0
:1006D8000130AE070318AF0A0030AF078C1071085D
:1006E8008A00700E8300FE0E7E0E0900F601F701E7
:1006F800720873040319812B822BB92BF801F80AAD
:10070800902B01300310F20DF30DFF3E031D862BD5
:100718000130FF007F08F807F31F932B942B852BDC
:1007280001300310F60DF70DFF3E031D952B7308DE
:100738007502031DA12B72087402031CA42BA52BA0
:10074800AC2B7208F4027308031CF503F502761447
:1007580001300310F30CF20CFF3E031DAD2B0130EA
:10076800F802031DB82BB92B942B7708F3007608F1
:10077800F2000800720873040319C32BC42BF32B6F
:10078800F601F60AD22B01300310F20DF30DFF3EED
:10079800031DC82B0130FF007F08F607F31FD52B78
:1007A800D62BC72B73087502031DDC2B7208740245
:1007B800031CDF2BE02BE62B7208F4027308031CE2
:1007C800F503F50201300310F30CF20CFF3E031D94
:1007D800E72B0130F602031DF22BF32BD62B7508FD
:1007E800F3007408F2000800F3007308031DFD2BE2
:1007F800FE2B032C8312031306083F39272C0130E4
:1008080083120313A0070318A10A0030A1073F3081
:100818000605F2003F3072060319132C142C1B2C0A
:1008280079080319182C192C1B2CF901FE2B3F30C1
:100838000605F2003F307206031D232C242C262CBB
:10084800F901F90A3F3008000A128A116D240A12C8
:100858008A110A128A118A240A128A110A128A1122
:1008680079240A128A110A128A1160240A128A113A
:100878000B178B1708007E088A007F0882000A126F
:100888008A113F240A128A118000840A04087D060E
:1008980003190034FF0A0319FE0A432C3F340634B7
:1008A8005B344F3466346D347D3407347F346F34B1
:1008B8003F343F343F343F348312031312149214ED
:1008C800FA308316031392008C1483120313121543
:1008D800080083160313880105080339850083126D
:1008E80003130508033985000800831603138112D2
:1008F800811506308312031381000800640080010B
:10090800840A0406031900340406832C831603138F
:0A09180006083F388600080001348D
:08400000FF3FFF3FFF3FFF3FC0
:02400E00FB3F76
:00000001FF
