:060000000A128A11EE2F26
:100D86000A128A11C9260A128A1108008316031349
:100D960088010508C3398500831203130508C33982
:100DA600850008003F3406345B344F3466346D34B6
:100DB6007D3407347F346F34083408347E088A0063
:100DC6007F0882000A128A11E1260A128A1180001F
:100DD600840A04087D0603190034FF0A0319FE0A73
:100DE600E52EF300F401F40174087307F0007008AF
:100DF6008400831300088312031388000430F00074
:100E0600740A072F0310F00DFF3E031D052F05087A
:100E1600C33970048500C830F1000030F20001309B
:100E2600F1020030031CF203F202710A031D1F2FA8
:100E3600720A031D1F2F202F122F0130FF007F087B
:100E4600F40704307402031C292F2A2FF72E0800FA
:100E5600700871040319302F312F602FF401F40A42
:100E66003F2F01300310F00DF10DFF3E031D352F0E
:100E76000130FF007F08F407F11F422F432F342F64
:100E860071087302031D492F70087202031C4C2F50
:100E96004D2F532F7008F2027108031CF303F3025F
:100EA60001300310F10CF00CFF3E031D542F0130EE
:100EB600F402031D5F2F602F432F7308F1007208A1
:100EC600F000080083120313B201B301B001B101AF
:100ED6000A128A11C3260A128A11013083120313D9
:100EE600B0070318B10A0030B10797303006310455
:100EF600031D7E2F7F2F932FB001B1013308F6001B
:100F06003208F500B20A0319B30A003076020B3034
:100F160003197502031C902F912F932FB201B30171
:100F26003208203E840083130008AC000C30F00029
:100F36000030F1003208013EF20033080318013E8A
:100F4600003EF3000A128A112B270A128A11700832
:100F5600203E84008313000883120313AD000C3077
:100F6600F0000030F1003208023EF20033080318A8
:100F7600013E003EF3000A128A112B270A128A113B
:100F86007008203E84008313000883120313AE000A
:100F96000C30F0000030F1003208033EF200330856
:100FA6000318013E003EF3000A128A112B270A128B
:100FB6008A117008203E84008313000883120313ED
:100FC600AF002C300A128A11F4260A128A11702FE9
:100FD6000A128A11002883132C30FD000630FE0009
:100FE600D530FF00203084000A128A11E5260A1245
:0A0FF6008A1183010A128A11652F87
:08400000FF3FFF3FFF3FFF3FC0
:02400E00FB3F76
:00000001FF
