:060000000A128A11F62F1E
:100C720001348316031306083F38860008008312E6
:100C8200031388018316031388010A128A113A2674
:100C92000A128A110800F1007108031D512E522E0A
:100CA200572E8312031306083F39752E3F308312E5
:100CB20003130605F0003F3070060319612E622E01
:100CC200692E7D080319662E672E692EFD01522EAC
:100CD2003F300605F0003F307006031D712E722E64
:100CE200742EFD01FD0A3F300800F601F60A20309D
:100CF200F4004E30F500F901FA01FB01FC01F701A5
:100D0200F8010A128A1140260A128A1101300A12C7
:100D12008A114C260A128A11F3003E307306031D13
:100D2200932E942EAF2E7B087C040319992E9A2EB3
:100D3200A72E77087804031D9F2EA02EA72E013020
:100D4200F7070318F80A0030F807F60176080319C6
:100D5200AB2EAD2E0130AE2E0030F6000130F40283
:100D62000030031CF503F502740A031DBC2E750A3C
:100D7200031DBC2EBD2E872E76080319C12EC22E4E
:100D8200932F77037804031DC72EC82ED02EF901A6
:100D9200FA010130F7070318F80A0030F8070030AB
:100DA2007A020830031979020318D82ED92EF22EAE
:100DB2002030F4004E30F5000130F200790AE32EC3
:100DC2000310F20DFF3E031DE12E7208831203137E
:100DD200080488000130F9070318FA0A0030FA07FC
:100DE200932F00307A02083003197902031CFA2E7D
:100DF200FB2E1A2F00307A021030031979020318E1
:100E0200032F042F1A2F2030F4004E30F50001304A
:100E1200F2007908F83E013E102F0310F20DFF3E5A
:100E2200031D0E2F7208FF3A831203130805880070
:100E3200EB2E00307A02103003197902031C222FA4
:100E4200232F932F770878040319282F292F2B2F6C
:100E5200F901FA01D030F4000730F50000307C02CD
:100E6200093003197B020318372F382F592F7708BF
:100E72007804031D3D2F3E2F592F2030F4004E30B1
:100E8200F5000130F2007B08083C013E4A2F0310B6
:100E9200F20DFF3E031D482F72088312031308044C
:100EA20088000130FB070318FC0A0030FC07932F6F
:100EB20000307C02093003197B02031C612F622F70
:100EC200872F00307C02113003197B0203186A2F2E
:100ED2006B2F872F77087804031D702F712F872FB0
:100EE2002030F4004E30F5000130F2007B08103C57
:100EF200013E7D2F0310F20DFF3E031D7B2F720872
:100F0200FF3A8312031308058800522F11307B0623
:100F12007C04031D8D2F8E2F932FF901FA01FB0103
:100F2200FC01932F7608031D972F982F872E0030F0
:100F32007C02093003197B020318A02FA12FBC2FBA
:100F42002030F4004E30F5000130F2007B08083CFE
:100F5200013EAD2F0310F20DFF3E031DAB2F7208B1
:100F620083120313080488000130FB070318FC0AEC
:100F72000030FC07872E00307C02083003197B0208
:100F8200031CC42FC52FE42F00307C02113003193B
:100F92007B020318CD2FCE2FE42F2030F4004E30E9
:100FA200F5000130F2007B08103C013EDA2F0310FD
:100FB200F20DFF3E031DD82F7208FF3A831203136E
:100FC20008058800B52F11307B067C04031DEA2F2B
:100FD200EB2FF22F2030F4004E30F500FB01FC0124
:100FE200872E872E0A128A1100280A128A113926A0
:0E0FF2000A128A11FD0083010A128A11762E5E
:08400000FF3FFF3FFF3FFF3FC0
:02400E00FB3F76
:00000001FF
