:060000000A128A110C280F
:10000800FE00030EF2000A08F3000A128A11EC2817
:100018000A128A110F2883132E30FD000230FE00C9
:100028004530FF00203084000A128A1136220A1255
:100038008A11B801B901BA01BB01BC01BD01F501C2
:10004800F601F701F80183010A128A112B280A1216
:100058008A1153220A128A118312031338083904A9
:100068000319372838288E280A30AE000030AF0030
:100078002D08B1002C08B0000A128A11B0210A120A
:100088008A11831203132E08203E8400831300086C
:10009800BA000A30AE000030AF002D08B1002C08BD
:1000A800B0000A128A11F6210A128A118312031368
:1000B8002E08203E8400831300088038BB000A30D5
:1000C800AE000030AF002B08B1002A08B0000A12B9
:1000D8008A11B0210A128A11831203132E08203EB6
:1000E800840083130008BC000A30AE000030AF0063
:1000F8002B08B1002A08B0000A128A11F6210A1248
:100108008A11831203132E08203E840083130008EB
:10011800BD00E2280A30AE000030AF002D08B10063
:100128002C08B0000A128A11B0210A128A1183120F
:1001380003132E08203E840083130008BA000A30F7
:10014800AE000030AF002D08B1002C08B0000A1234
:100158008A11F6210A128A11831203132E08203EEF
:10016800840083130008BB000A30AE000030AF00E3
:100178002B08B1002A08B0000A128A11B0210A120D
:100188008A11831203132E08203E8400831300086B
:10019800BC000A30AE000030AF002B08B1002A08BE
:1001A800B0000A128A11F6210A128A118312031367
:1001B8002E08203E840083130008BD003A300A123E
:1001C8008A1156210A128A1130280A128A110C281B
:1001D8000B1DEF28F0284E29831203130108083E4F
:1001E80081000130F7070318F80A0030F8071030CB
:1001F8007706273003197806031D032904291329D4
:1002080038083904031909290B2901300C29003051
:10021800F000F1017008B8007108B9004E292030CB
:1002280077064E3003197806031D1B291C294E2911
:10023800F701F8010130F5070318F60A0030F60750
:10024800183075067604031D2A292B294E29F50135
:10025800F6010130AA070318AB0A0030AB073C309F
:100268002A062B04031D39293A294229AA01AB0180
:100278000130AC070318AD0A0030AD0700302D027D
:10028800183003192C02031C4A294B294E29AC01AA
:10029800AD014E290B1173088A00720E8300FE0E01
:1002A8007E0E090083120313B600B701370836071C
:1002B800AE002E0884008313000888000430AE00C6
:1002C800370A68290310AE0DFF3E031D662905088D
:1002D80003392E0485000030B5000030B400033027
:1002E800B3008430B200013083120313AE00003033
:1002F800AF000030B0000030B1002E08B2022F0865
:10030800031C2F0F88298929B3023008031C300FDA
:100318008E298F29B4023108031C310F942995299D
:10032800B502320A031DA229330A031DA229340A81
:10033800031DA229350A031DA229A3297729013003
:10034800FF007F0883120313B70704303702031C2A
:10035800AE29AF295A29080083120313B301B40147
:100368002E082F040319B929BA29F129B201B20AB2
:10037800C82901300310AE0DAF0DFF3E031DBE2985
:100388000130FF007F08B207AF1FCB29CC29BD2958
:1003980001300310B30DB40DFF3E031DCD292F0806
:1003A8003102031DD9292E083002031CDC29DD295E
:1003B800E4292E08B0022F08031CB103B10233143C
:1003C80001300310AF0CAE0CFF3E031DE5290130D0
:1003D800B202031DF029F129CC293408AF003308F3
:1003E800AE000800831203132E082F040319FD29F9
:1003F800FE292D2AF401F40A0C2A01300310AE0D4F
:10040800AF0DFF3E031D022A0130FF007F08F407ED
:10041800AF1F0F2A102A012A2F083102031D162A9E
:100428002E083002031C192A1A2A202A2E08B00284
:100438002F08031CB103B10201300310AF0CAE0C3E
:10044800FF3E031D212A0130F402031D2C2A2D2A08
:10045800102A3108AF003008AE0008007E088A0074
:100468007F0882000A128A1132220A128A11800039
:10047800840A04087D0603190034FF0A0319FE0ADA
:10048800362A3F3406345B344F3466346D347D3459
:1004980007347F346F342D3400340B3400340A129F
:1004A8008A115F220A128A110A128A116B220A1211
:1004B8008A118B170800831603138801050803396E
:1004C8008500831203130508033985000800831685
:1004D8000313811281158B160630831203138100D2
:0204E80008000A
:08400000FF3FFF3FFF3FFF3FC0
:02400E00FB3F76
:00000001FF
